S00D0000426C696E6B2E7372656327
S11300000C94E6000C940E010C940E010C940E0159
S11300100C940E010C940E010C940E010C940E0120
S11300200C940E010C940E010C94DF040C946E03DA
S11300300C940E010C940E010C940E010C940E0100
S11300400C940E010C940E010C940E010C940E01F0
S11300500C940E010C940E010C940E010C94750575
S11300600C940E010C940E010C940E010C940E01D0
S11300700C940E010C940E010C940E010C940E01C0
S11300800C940E010C940E010C940E010C940E01B0
S11300900C940E010C940E010C940E010C940E01A0
S11300A00C940E010C940E010C940E018E06910614
S11300B0800684068A06B206B206B206950699063A
S11300C09D06A306A706B206AD0612010002EF02C2
S11300D001404123368000010102030112010002A4
S11300E000000040412336800001010203014172F7
S11300F06475696E6F204C4C430041726475696E7F
S11301006F204C656F6E6172646F00040309040014
S113011000000200090F0000030401000C000000AD
S113012000000000000000000000000000000408BF
S113013002011040804010204080408008020401E9
S1130140804020100201108010204040200404044C
S1130150040403040502020202040302020202066A
S11301600606060606040402020204040000000057
S1130170250028002B002E00310000000000240080
S113018027002A002D003000080B000202020100A3
S113019009040000010202000005240010010524E6
S11301A00101010424020605240600010705810358
S11301B010004009040100020A00000007050202C1
S11301C040000007058302400000FF0711241FBE02
S11301D0CFEFDAE0DEBFCDBF11E0A0E0B1E0ECE6A6
S11301E0F1E102C005900D92A432B107D9F721E0E4
S11301F0A4E2B1E001C01D92A439B207E1F710E016
S1130200C6EED0E004C02197FE010E94AE08C53EB0
S1130210D107C9F70E9429010C94B4080C9400007A
S113022061E08DE00C94B30661E08DE00E94EF067E
S113023068EE73E080E090E00E94E40560E08DE009
S11302400E94EF0668EE73E080E090E00C94E40511
S113025008950E9420060E94280184E291E00E94F1
S113026062050E941001C0E0D0E00E9414012097B2
S1130270E1F30E940000F9CF615030F02091F100C9
S1130280FC0120830196F8CF289884E680932D0101
S1130290089540912801509129012091260130911F
S11302A0270142175307B4F49091E8009570E1F3E5
S11302B09091E80092FD19C08093F100809128018B
S11302C09091290101968F739927892B19F48EEF48
S11302D08093E800809128019091290101969093E0
S11302E029018093280181E0089580E00895CF9248
S11302F0DF92EF92FF920F931F93CF93DF931F929E
S1130300CDB7DEB7182F062FE42E862F880F8E5F09
S113031099830E94490183E00E944901F12EC12E74
S11303209981D92E8C2D8F19801798F4F601E7FE48
S113033002C0849101C080810E944901182F80E08D
S11303400E9449018123FFEFCF1ADF0A8111EACF0E
S113035001C081E00F90DF91CF911F910F91FF9029
S1130360EF90DF90CF9008958091D70081608093C3
S1130370D70080EA8093D80089B5806189BD89B5AA
S1130380826089BD09B400FEFDCF61E070E080E0C9
S113039090E00E94E4058091D8008F7C8061809376
S11303A0D8008091E000807F8093E0000895CF938F
S11303B0DF931F92CDB7DEB71982CE0101960E945A
S11303C07C070E949A08BE016F5F7F4F0E94150848
S11303D089810F90DF91CF9108952FB7FC0120837D
S11303E0F89467706093E9000895CF93DF931F92A8
S11303F0CDB7DEB7682FCE0101960E94ED01809142
S1130400F20099819FBF0F90DF91CF910895EF92F1
S1130410FF920F931F93CF93DF931F92CDB7DEB755
S113042090912C01992311F057FF03C08FEF9FEF98
S11304302AC08A017B01682FCE0101960E94ED013A
S11304408091F20090E0A801801791070CF4AC01B0
S1130450842FF70194E6815038F0289890932D0169
S11304602091F1002193F7CF4115510521F080919E
S1130470F200882321F089818FBFCA0104C08BE672
S11304808093E800F8CF0F90DF91CF911F910F91E7
S1130490FF90EF900895CF93DF931F92CDB7DEB70F
S11304A041E050E0BE016F5F7F4F0E940702019759
S11304B019F4898190E002C08FEF9FEF0F90DF91D4
S11304C0CF910895CF93DF931F92CDB7DEB7682FF6
S11304D0CE0101960E94ED019091E800892F80726F
S11304E095FF04C09091F20080E4891B99819FBF1D
S11304F00F90DF91CF9108956F927F928F929F9288
S1130500AF92BF92CF92DF92EF92FF920F931F931D
S1130510CF93DF931F92CDB7DEB7A82E6B01B42E15
S1130520052F80912C01882369F0E42EF52E8AEFA3
S1130530982E8A2D8072782E9AE3892E8A2D8074C3
S1130540682E12C08FEF9FEF54C08A2D0E94620262
S1130550182F81110DC09A949920A1F361E070E0E5
S113056080E090E00E94E405E114F10471F737C0E3
S113057090E0E816F9060CF41E2D6A2DCE010196C2
S11305800E94ED018091E80085FF26C0812F90E054
S1130590E81AF90A772029F01150A8F01092F10016
S11305A0FBCFF601A7FE07C0115058F02491209309
S11305B0F1003196F9CF115020F021912093F100F0
S11305C0FACFC80ED91E8091E80085FF0FC0E11450
S11305D0F10411F461100AC089818FBFC5CF5D9801
S11305E084E680932E018B2D902F03C08092E80027
S11305F0F3CF0F90DF91CF911F910F91FF90EF9068
S1130600DF90CF90BF90AF909F908F907F906F902E
S113061008951092E90010922901109228019093F4
S11306202701809326010895DF92EF92FF920F93A2
S11306301F93CF93DF93D82E8A017B01E40EF51E1E
S1130640EB01CE15DF0571F0D7FE03C0FE018491E6
S113065001C088810E94490121968111F2CF8FEF58
S11306609FEF01C0C801DF91CF911F910F91FF90BF
S1130670EF90DF900895BF92CF92DF92EF92FF92B6
S11306800F931F93CF93DF936C018B01EB019BEFCF
S1130690B92E2097C1F07E01C134D1051CF080E44D
S11306A0E82EF12C8091E80082FFFCCFC8018C1B5E
S11306B09D0B6E2D8C0D9D1D0E943C01B092E80097
S11306C0CE19DF09E6CFC801DF91CF911F910F91B9
S11306D0FF90EF90DF90CF90BF9008951F920F92FC
S11306E00FB60F921124CF92DF92EF92FF920F93E5
S11306F01F932F933F934F935F936F937F938F93A6
S11307009F93AF93BF93EF93FF93CF93DF93CDB7B3
S1130710DEB76C97DEBFCDBF1092E9008091E80090
S113072083FF24C168E0CE0145960E943C0182EF1C
S11307308093E8008D8987FF05C09091E80090FFC1
S1130740FCCF03C09EEF9093E800982F907609F0B9
S1130750F1C09E892F89188D91110CC0803829F41D
S113076080912B018093F10002C01092F10010924D
S1130770F100F5C0422F50E0512B913051F481111A
S1130780EEC04130510509F0EAC080912B018D7F04
S11307900BC0933061F48111E2C04130510509F07E
S11307A0DEC080912B01826080932B01D8C09530EC
S11307B041F48091E80080FFFCCF20682093E3009F
S11307C0CEC0963009F08CC0EB8CFC8C123069F5ED
S11307D080E090E00E9409030E94D70199E09E0105
S11307E02F5F3F4F6901F901292F11922A95E9F7EB
S11307F099831A8391E09E8390EA98879AEF998768
S11308002091280130912901275F3F4F3C832B839E
S11308108D83C7010E94090349E050E0B60180E0DE
S11308200E9414030E94D7019AC0C7010E940903C1
S11308300E949A08BE016B5E7F4F0E943E0800979B
S113084019F00CF08CC08FC0113071F48B8D9C8D1D
S1130850089719F481E08093250180912501811185
S11308602FC06CED70E031C0133009F07CC08F896B
S1130870882349F1823029F440E860E18AEF90E06E
S113088006C0813039F440E86BE08EEE90E00E94BF
S1130890770163C0833009F066C00E949A088E0114
S11308A00F5F1F4FB8010E945D08F80101900020FE
S11308B0E9F73197BF01601B710B40E0C801E7CF36
S11308C06AEC70E002C06BE071E06115710509F437
S11308D04AC0FB01449150E080E80E9414033FC0E9
S11308E0973009F440C0983021F481E08093F100FE
S11308F036C09930A1F58370B1F5E1E0F1E081E013
S113090021E036E39081992361F08093E9002093FC
S1130910EB0091919093EC003093ED008F5F873062
S113092089F78EE78093EA001092EA008F8980931A
S11309302C0115C08B8D9C8D0E940903898D81111A
S113094005C0CE0145960E94870707C00E949A08F9
S1130950BE016B5E7F4F0E947C08882321F08EEFDE
S11309608093E80003C081E28093EB006C960FB69D
S1130970F894DEBF0FBECDBFDF91CF91FF91EF9111
S1130980BF91AF919F918F917F916F915F914F91A3
S11309903F912F911F910F91FF90EF90DF90CF9097
S11309A00F900FBE0F901F9018958093E9008091CF
S11309B0F200882319F08AE38093E80008951F92D7
S11309C00F920FB60F9211242F933F934F935F937F
S11309D06F937F938F939F93AF93BF93CF93EF9333
S11309E0FF93C091E1008091E100837F8093E10057
S11309F08093E100C3FF0FC01092E90081E080936F
S1130A00EB001092EC0082E38093ED0010922C0135
S1130A1088E08093F000C2FF19C083E00E94D504EF
S1130A2080912E01882339F080912E01815080938A
S1130A302E01882389F180912D01882339F080913A
S1130A402D01815080932D01882341F1C4FF10C0F2
S1130A508091E2008E7E81608093E2008091E100CB
S1130A608F7E8093E10080912A018E7E806111C087
S1130A70C0FF16C08091E2008E7E80618093E20008
S1130A808091E1008E7E8093E10080912A018E7E28
S1130A90816080932A0104C05D9ACDCF289AD6CF75
S1130AA0FF91EF91CF91BF91AF919F918F917F91E2
S1130AB06F915F914F913F912F910F900FBE0F90C7
S1130AC01F90189510922C0110922B0110922A015C
S1130AD00E94B401E1EEF0E080818E7E80838DE09F
S1130AE08093E200559A209A08951F920F920FB6B0
S1130AF00F9211242F933F938F939F93AF93BF93A0
S1130B008091300190913101A0913201B091330173
S1130B1030912F0123E0230F2D3720F40196A11DDE
S1130B20B11D05C026E8230F0296A11DB11D209317
S1130B302F018093300190933101A0933201B0933F
S1130B4033018091340190913501A0913601B09127
S1130B5037010196A11DB11D809334019093350195
S1130B60A0933601B0933701BF91AF919F918F91BC
S1130B703F912F910F900FBE0F901F9018953FB784
S1130B80F8948091340190913501A0913601B0918F
S1130B90370126B5A89B05C02F3F19F00196A11D6A
S1130BA0B11D3FBFBA2FA92F982F8827820F911DFF
S1130BB0A11DB11DBC01CD0142E0660F771F881F46
S1130BC0991F4A95D1F708958F929F92AF92BF9241
S1130BD0CF92DF92EF92FF926B017C010E94BF05DE
S1130BE04B015C01C114D104E104F10401F10E9440
S1130BF014080E94BF05DC01CB0188199909AA09D0
S1130C00BB09883E9340A105B10560F321E0C21AF7
S1130C10D108E108F10888EE880E83E0981EA11C33
S1130C20B11CC114D104E104F10419F7DBCFFF9026
S1130C30EF90DF90CF90BF90AF909F908F900895EA
S1130C40789484B5826084BD84B5816084BD85B5A3
S1130C50826085BD85B5816085BDEEE6F0E080816A
S1130C6081608083E1E8F0E010828081826080838B
S1130C70808181608083E0E8F0E08081816080830E
S1130C80E1E9F0E0808182608083808181608083FB
S1130C90E0E9F0E0808181608083E1ECF0E0808134
S1130CA0846080838081826080838081816080838E
S1130CB0E3ECF0E0808181608083E0ECF0E080810F
S1130CC082608083E2ECF0E0808181608083EAE7E7
S1130CD0F0E0808184608083808182608083808171
S1130CE081608083808180688083089590E0FC0126
S1130CF03197EF30F105B0F5EA5AFF4F0C94AE0886
S1130D00809180008F7703C0809180008F7D8093D5
S1130D108000089580918000877FF9CF84B58F7714
S1130D2002C084B58F7D84BD0895809190008F7733
S1130D3007C0809190008F7D03C080919000877FD1
S1130D408093900008958091C0008F7703C08091B4
S1130D50C0008F7D8093C00008958091C200877F7A
S1130D608093C2000895CF93DF9390E0FC01E25D8D
S1130D70FE4F2491FC01E35BFE4F8491882361F1D3
S1130D8090E0880F991FFC01E658FE4FC591D4915D
S1130D90FC01E459FE4FA591B491611109C09FB7BC
S1130DA0F8948881209582238883EC912E230BC0AC
S1130DB0623061F49FB7F8943881822F8095832341
S1130DC08883EC912E2B2C939FBF06C08FB7F89489
S1130DD0E8812E2B28838FBFDF91CF9108951F9335
S1130DE0CF93DF93282F30E0F901E15FFE4F849128
S1130DF0F901E25DFE4FD491F901E35BFE4FC4912A
S1130E00CC23C9F0162F81110E947606EC2FF0E056
S1130E10EE0FFF1FE459FE4FA591B4918FB7F894DC
S1130E20111105C09C91ED2FE095E92302C0EC91CE
S1130E30ED2BEC938FBFDF91CF911F910895CF934A
S1130E40DF931F92CDB7DEB76983DC01ED91FC918E
S1130E500280F381E02D41E050E0BE016F5F7F4FDF
S1130E6009950F90DF91CF910895CF93DF93EC0113
S1130E708C859D8597FF05C082E00E944B029D876B
S1130E808C878C859D85DF91CF91089583E00C94A8
S1130E90D504FC018485958597FD06C082E00E94F7
S1130EA0F50190E00196089582E00E94F50190E03A
S1130EB00895FC018485958597FD05C02FEF3FEFCC
S1130EC035872487089582E00C944B02CF93DF93F7
S1130ED0EC0180911201882331F083E00E947C02AE
S1130EE01816190634F081E090E09B838A8380E031
S1130EF090E0DF91CF910895FC0190819E5F9083F3
S1130F0042E450E068E871E080E80C941403FC01CA
S1130F1081819081913A59F4813209F058C047E0B7
S1130F2050E06BE071E080E00E94140366C09132EF
S1130F3009F04DC0833291F49381892F90E0982F6A
S1130F4088272281822BA0E0B0E080930701909350
S1130F500801A0930901B0930A014FC0803239F40B
S1130F6067E070E08BE091E00E943B0306C08232B0
S1130F7009F043C082818093120180910B0190910A
S1130F800C01A0910D01B0910E01803B9440A1058C
S1130F90B105F9F48091120180FD1BC08091000815
S1130FA0909101089093FF0A8093FE0A87E797E7E0
S1130FB090930108809300089BE088E10FB6F894B1
S1130FC0A895809360000FBE9093600016C080E0E7
S1130FD008950FB6F894A895809160008861809375
S1130FE06000109260000FBEA8958091FE0A909157
S1130FF0FF0A909301088093000881E00895E8E3D4
S1131000F1E01382128288EE93E0A0E0B0E08483E2
S11310109583A683B78387E191E0918380838FEFE3
S11310209FEF9587848708950895EF92FF920F9319
S11310301F93CF93DF937B01FC01C281D38100E036
S113104010E0209781F0E881F9810280F381E02D9E
S1131050B701CE01099597FD08C0080F191F088430
S1131060D985C02DEECFC80102C08FEF9FEFDF916D
S1131070CF911F910F91FF90EF9008950F931F93BD
S1131080CF93DF938B01FC01C281D381209771F050
S1131090E881F9810480F581E02DB801CE0109953C
S11310A0009731F40884D985C02DF0CF80E090E01A
S11310B0DF91CF911F910F9108950F931F93CF93B9
S11310C0DF938B01FC01C281D381209771F0E88109
S11310D0F9810680F781E02DB801CE010995080F4A
S11310E0111D0884D985C02DF0CFF8011082DF913D
S11310F0CF911F910F9108950F931F93CF93DF9377
S11311008B01FC01C281D381209771F0E881F981C0
S11311100190F081E02DB801CE010995811105C03F
S11311200884D985C02DF0CF80E0DF91CF911F9145
S11311300F91089580918C0181110DC082E08093FC
S1131140880184E08093890110928B0110928A01B6
S113115081E080938C0188E891E00895EE0FFF1FF1
S10F11600590F491E02D0994F894FFCF61
S113116C00C18081000000FFFFFFFF00E1000000D0
S113117C000000000000001F0766074907590735E7
S107118C0746070007
S9030000FC
