S01000006D61696E5F53444B2E737265632E
S11300000C9466010C948E010C948E010C948E0158
S11300100C948E010C948E010C948E010C948E0120
S11300200C948E010C948E010C940A170C9499155F
S11300300C948E010C948E010C948E010C948E0100
S11300400C948E010C948E010C948E010C948E01F0
S11300500C948E010C948E010C948E010C94A017B8
S11300600C948E010C94D1100C9403110C948E01F9
S11300700C948E010C948E010C948E010C948E01C0
S11300800C948E010C948E010C948E010C948E01B0
S11300900C94CF0A0C948E010C948E010C948E0156
S11300A00C948E010C948E010C948E014D0352031A
S11300B056035A035E036F03730377037B037F03C3
S11300C08903930397039B039F03A303A703B1032C
S11300D0B503B903BD03C103C803CF03D303D703D7
S11300E0DB03DF03E303E703EB03EF03F303FD03A6
S11300F001040504090409040D0411041504190478
S11301001D042104250429042D04310435043F046D
S1130110430447044B044F04530457045B045F0433
S1130120630467046B046F04730477047B0488041A
S11301308F0496049D04A104A504A904B004BA0480
S1130140BE04C204CC04D304E004ED0433084A081A
S11301504A0847084A0831084A084A084A0825084C
S11301604A084A083A08450843084A084A084A0817
S11301704108C518C818B718BB18C118E918E918F8
S1130180E918CC18D018D418DA18DE18E918E418CD
S11301904A756E20313820323031360031373A34E6
S11301A0313A3236001F1C1F1E1F1E1F1F1E1F1E2A
S11301B01F080B00020202010009040000010202F0
S11301C00000052400100105240101010424020695
S11301D005240600010705810310004009040100FD
S11301E0020A00000007050202400000070583021E
S11301F040000012010002EF02014041233680005A
S113020001010203011201000200000040412336F3
S11302108000010102030141726475696E6F204C14
S11302204C430041726475696E6F204C656F6E615A
S113023072646F00040309040000000200090F0047
S113024000030401000C0000000000000000000096
S1130250000000000000000408020110408040106B
S113026020408040800802040180402010020110D8
S11302708010204040200404040404030405020206
S1130280020204030202020206060606060604042B
S11302900202020404000000002300260029002CAE
S11302A0002F0000000000250028002B002E003144
S11302B00000000000240027002A002D0030000068
S11302C091018905B0072A0D910F331111241FBE26
S11302D0CFEFDAE0DEBFCDBF13E0A0E0B1E0E0E1B4
S11302E0F5E302C005900D92A434B107D9F725E0D7
S11302F0A4E4B3E001C01D92A134B207E1F711E018
S1130300C6E6D1E004C02197FE010E94471AC03618
S1130310D107C9F70E9461110C94861A0C9400004D
S1130320089581E193E090934C0380934B0384E41C
S113033093E00C949B0108958F929F92BF92CF9269
S1130340DF92EF92FF920F931F93CF93DF93CDB77A
S1130350DEB760970FB6F894DEBF0FBECDBF88E05E
S11303608E01075F1F4FF801982F11929A95E9F7B4
S113037097E0998794E09A879CE09B8796E09C8716
S11303809AE09D878E8799E09F87E3E1F1E0DE01A3
S1130390119601900D928A95E1F7FE0131967F0145
S11303A04F01680188E0B82EB00E60E0F60181913B
S11303B06F010E94EA1861E0F40181914F010E94EB
S11303C0EA18BC10F2CF60E0F80181918F010E941D
S11303D0261960E0F70181917F010E942619B0126D
S11303E0F2CF60960FB6F894DEBF0FBECDBFDF919B
S11303F0CF911F910F91FF90EF90DF90CF90BF901E
S11304009F908F90089561E08EE00C94261961E02E
S11304108FE00C94261961E080E10C94261961E0C8
S113042081E10C94261960E08EE00C94261960E0BA
S11304308FE00C94261960E080E10C94261960E0AA
S113044081E10C94261960E085E00E94261960E0A1
S11304508DE00E94261960E082E10E94261960E086
S113046083E10C94261960E08DE00C94261960E079
S113047082E10C942619CF93DF93EC0161E083E1D0
S11304800E94261960E085E00E942619CE010E9490
S11304903302CE01DF91CF910C94370260E083E107
S11304A00C942619CF93DF93EC0161E085E00E9460
S11304B02619CE010E943302CE010E943702CE01DA
S11304C0DF91CF910C944E02CF93DF93EC0161E066
S11304D08EE00E94261961E08FE00E94261961E0F7
S11304E080E10E94261961E081E10E942619CE0173
S11304F00E940F02CE01DF91CF910C945202CF9350
S1130500DF93EC0161E08DE00E94261960E085E054
S11305100E942619CE010E943702CE01DF91CF91AD
S11305200C944E02CF93DF93EC0161E082E10E94D0
S1130530261960E085E00E942619CE010E9433024C
S1130540CE01DF91CF910C944E02CF93DF93EC0157
S113055060E08EE00E94261960E08FE00E94261978
S113056060E080E10E94261960E081E10E94261982
S1130570CE01DF91CF910C9423026F927F928F92E0
S11305809F92AF92BF92CF92DF92EF92FF920F931E
S11305901F93CF93DF93CDB7DEB728970FB6F894A8
S11305A0DEBF0FBECDBF87E00E9456193C0184E038
S11305B00E9456194C018CE00E9456195C0186E099
S11305C00E9456196C018AE00E9456198C0188E039
S11305D00E9456197C0189E00E9456199C01FE0173
S11305E0319688E0DF011D928A95E9F781E067285A
S11305F009F480E0898381E0892809F480E08A8312
S113060081E0AB2809F480E08B8381E0CD2809F4F4
S113061080E08C8381E0EF2809F480E08D8391E011
S1130620012B09F490E09E8391E0232B09F490E0E0
S11306309F8340E050E080E02191042E01C0220F0E
S11306400A94EAF7822B4F5F5F4F48305105A1F7B8
S113065028960FB6F894DEBF0FBECDBFDF91CF91C1
S11306601F910F91FF90EF90DF90CF90BF90AF90CC
S11306709F908F907F906F900895CF93DF93EC01BC
S11306806B836E83862F90E08035910508F0B6C1A8
S1130690FC01EA5AFF4F0C94471ACE01DF91CF9127
S11306A00C94A502CE010E94230235C1CE010E9402
S11306B0230238C1CE010E9423023BC1CE010E9415
S11306C02302CE010E941F02CE010E940B02CE0122
S11306D00E941702CE01DF91CF910C941302CE0138
S11306E00E94230251C0CE010E94230254C0CE01B5
S11306F00E94230231C1CE010E94230234C1CE01E3
S11307000E942302CE010E940F02CE010E941B020E
S113071053C1CE010E942302CE010E940F02CE01DA
S11307200E941B0256C1CE010E9423022EC1CE019B
S11307300E94230234C1CE010E94230237C1CE019C
S11307400E94230240C1CE010E94230249C16BE1F1
S113075071E084E394E00E94C111CE010E94520230
S1130760D3C0CE010E945202D6C0CE010E945202D2
S1130770D9C0CE010E945202DCC0CE010E945202B6
S1130780A0CFCE010E945202CE010E941F0211C1CD
S1130790CE010E945202CE010E941F0217C1CE0157
S11307A00E945202D9C0CE010E945202DCC0CE0186
S11307B00E945202A7CFCE010E945202ADCFCE01B9
S11307C00E945202E2C0CE010E945202E8C0CE0151
S11307D00E945202EBC0CE010E945202F4C0CE012C
S11307E00E945202FDC065E271E084E394E00E943D
S11307F0C111CE010E947F0287C0CE010E947F02F8
S11308008AC0CE010E947F028DC0CE010E947F0269
S113081090C0CE010E947F0254CFCE010E947F027D
S1130820BACFCE010E947F0297C0CE010E947F0200
S11308309AC0CE010E947F0265CFCE010E947F0242
S11308406BCFCE010E947F02A0C0CE010E947F0226
S1130850A6C0CE010E947F02A9C0CE010E947F02E1
S1130860B2C0CE010E947F02BBC06FE271E084E39C
S113087094E00E94C111CE010E94920245C0CE01B3
S11308800E94920248C0CE010E9492024BC0CE0147
S11308900E9492024EC0CE010E94920212CFCE015B
S11308A00E94920271CFCE010E94920274CFCE01B7
S11308B00E94920251C0CE010E94920254C0CE0105
S11308C00E9492021FCFCE010E94920225CFCE0138
S11308D00E9492025AC0CE010E94920260C0CE01D0
S11308E00E94920263C0CE010E9492026CC0CE01AB
S11308F00E94920275C069E371E084E394E00E946F
S1130900C111CE010E943B02CE010E941F022EC0E3
S1130910CE010E943B02CE010E941F02F6CECE0100
S11309200E943B02CE010E941F02F9CECE010E941A
S11309303B02CE010E941F022BC0CE010E943B024B
S1130940C0CECE010E943B021FCFCE010E943B02CB
S113095022CFCE010E943B02CE010E941F0243C05F
S1130960CE010E943B02CE010E940F02CE010E94E2
S11309701B02ADCECE010E943B02C4CECE010E942A
S11309803B02CACECE010E943B02CE010E940F025E
S1130990CE010E941B022AC0CE010E943B02CE015E
S11309A00E940F0291CECE010E943B02CE010E9412
S11309B00F02CE010E940B02CE010E94170219C041
S11309C0CE010E943B02CE010E940F02CE010E9482
S11309D00B02CE010E9407027DCECE010E943B0293
S11309E0CE010E940F02CE010E940B02CE010E9492
S11309F00702CE01DF91CF910C940302DF91CF91D6
S1130A0008954F925F926F927F928F929F92AF92CE
S1130A10BF92CF92DF92EF92FF920F931F93CF93E7
S1130A20DF93CDB7DEB728970FB6F894DEBF0FBEBD
S1130A30CDBF8EE00E9456193C018FE00E945619EA
S1130A404C0180E10E9456195C0181E10E94561913
S1130A506C0185E00E9456197C018DE00E945619B4
S1130A608C0182E10E9456192C0183E10E945619DF
S1130A709C0181E0672809F480E0898381E089286A
S1130A8009F480E08A8381E0AB2809F480E08B8359
S1130A9081E0CD2809F480E08C8381E0EF2809F41B
S1130AA080E08D8391E0012B09F490E09E8391E036
S1130AB0452809F490E09F8391E0232B09F490E00A
S1130AC09887FE01319640E050E080E02191042EA9
S1130AD001C0220F0A94EAF7822B4F5F5F4F483020
S1130AE05105A1F728960FB6F894DEBF0FBECDBF0F
S1130AF0DF91CF911F910F91FF90EF90DF90CF90F6
S1130B00BF90AF909F908F907F906F905F904F9029
S1130B1008958FE493E00C9490010C94781A0F9349
S1130B201F93CF93DF9300D000D000D0CDB7DEB7B2
S1130B3040E855E260E070E084E394E00E948B0FAB
S1130B4040E855E260E070E08FE693E00E94480DD3
S1130B508FE693E00E942E0D63E471E08FE693E04C
S1130B600E94820D63E070E08FE693E00E94270EFE
S1130B7060E070E08FE693E00E94620E60E070E057
S1130B808FE693E00E94FC0D62E070E08FE693E054
S1130B900E94CA0D61E070E08FE693E00E949F0D11
S1130BA08FE693E00E943E0D88E693E00E949C014C
S1130BB083E793E00E94B408811107C06CE471E0FC
S1130BC084E394E00E94C111FFCF83E793E00E9485
S1130BD03609811112C06EE571E084E394E00E944D
S1130BE0C1114CE951E060E971E0CE0101960E9427
S1130BF0FC07CE0101960E94BA0800E010E060E014
S1130C00C8010E948D050F5F1F4F013084E0180753
S1130C10B1F7569A26960FB6F894DEBF0FBECDBF35
S1130C20DF91CF911F910F910895CF93DF9300D05F
S1130C3000D000D0CDB7DEB7789488E693E00E9468
S1130C40BD02809361038091610380936103CE01AF
S1130C5001960E945F098FE693E00E948D0E88231F
S1130C6009F4D2C08FE693E00E94520D909367037B
S1130C70809366038FE693E00E94520D9093650380
S1130C80809364038FE693E00E94520D9093630374
S1130C90809362038FE693E00E949B0E8834910553
S1130CA009F09EC080916603909167038F36910589
S1130CB009F492C01CF4892B71F092C08E3D910509
S1130CC009F485C0873E934009F08AC088E693E022
S1130CD00E94A50285C080916403909165039C01E4
S1130CE0277F2530310539F09C012251310922300A
S1130CF0310508F067C0209162033091630321300D
S1130D00310509F05FC062E771E084E394E00E947A
S1130D10B4118091640390916503059781F48091E7
S1130D20620390916303019751F46CE771E084E3EB
S1130D3094E00E94B41188E693E00E9452028091EC
S1130D406403909165030D9781F4809162039091FF
S1130D506303019751F464E871E084E394E00E9432
S1130D60B41188E693E00E947F028091640390911D
S1130D706503429781F48091620390916303019724
S1130D8051F46CE871E084E394E00E94B41188E6C5
S1130D9093E00E94920280916403909165034397CB
S1130DA0F9F480916203909163030197C9F464E9B3
S1130DB071E084E394E00E94B41188E693E00E9419
S1130DC03B020EC0609162030E94261909C088E6A6
S1130DD093E00E94230204C088E693E00E94640228
S1130DE088E693E00E94010580935B036CE971E05F
S1130DF08FE693E00E945E0D60915B034AE050E051
S1130E008FE693E00E94780D9091610380916003D6
S1130E109817A9F18091610380935F038091600327
S1130E2090916103892780935E0380915E03909182
S1130E305B03892380935D0360915F0388E693E0FD
S1130E400E943D0388E693E00E94010580935B03C2
S1130E506FE971E08FE693E00E945E0D60915B03A1
S1130E604AE050E08FE693E00E94780D80915B03A6
S1130E708F7080935C03809161038093600363EAC5
S1130E8071E08FE693E00E945E0D83E090E00E94A3
S1130E90701A40E150E0682F8FE693E00E94780DCD
S1130EA090915B0380915C03981709F440C067EA52
S1130EB071E08FE693E00E945E0D60915B034AE06F
S1130EC050E08FE693E00E94780D80915B038130BF
S1130ED021F148F0823039F564EB71E08FE693E05C
S1130EE00E945E0D1AC06CEA71E08FE693E00E94E6
S1130EF05E0DCE0101960E947608609357037093AD
S1130F0058038093590390935A0360935603709344
S1130F105503809354039093530360ED77E080E08E
S1130F2090E00E941B1880915B0380935C0364EF44
S1130F3071E080E090E00E941B1898E288E10FB60F
S1130F40F894A895809360000FBE90936000269655
S1130F500FB6F894DEBF0FBECDBFDF91CF910895D9
S1130F6081E193E09093700380936F0388E693E0AC
S1130F700C949B01803D27E0920710F0805D974020
S1130F8050E0E5EAF1E021E02E1B322F3E0F361748
S1130F9028F43491430F511D3196F7CF633038F064
S1130FA09C0123703327232B11F44F5F5F4F2DE6F1
S1130FB031E0829FB001839F700D929F700D1124C8
S1130FC0615071099C012D5F3F4F369527953695E9
S1130FD02795CB01820F931F840F951F0895FC0161
S1130FE0908190539A3008F090E0818180532AE0F8
S1130FF0929F800D11240895EF92FF920F931F93F7
S1131000CF93DF93CDB7DEB72B970FB6F894DEBF3F
S11310100FBECDBF8C017A014BE050E0CE010196AA
S11310200E94671ACE010A960E94EF07F801808396
S1131030E9818E2F90E0FC01E154F109E331F105DF
S113104048F5EA55FF4F0C94471A8A81813639F0E6
S11310508B818E3611F087E01BC086E019C081E0D9
S113106017C082E015C08B81823711F088E010C070
S113107084E00EC08B81823711F085E009C083E0E3
S113108007C089E005C08AE003C08BE001C08CE0A2
S1131090F8018183CE0105960E94EF07F80182834F
S11310A048E050E0B701CE0101960E94671ACE01D4
S11310B001960E94EF07F8018383CE0104960E94F3
S11310C0EF07F8018483CE0107960E94EF07F80129
S11310D085832B960FB6F894DEBF0FBECDBFDF918C
S11310E0CF911F910F91FF90EF900895EF92FF928F
S11310F00F931F93CF93DF93EC0188814A81698119
S113110090E00E94BA079C01A8E1B0E00E944D1A49
S11311102B817B018C01E20EF11C011D111DA80124
S11311209701ACE3B0E00E945C1A2C817B018C0136
S1131130E20EF11C011D111DA80197010E945C1A09
S11311402D81DC01CB01820F911DA11DB11DBC01BC
S1131150CD0160587C4B8249974CDF91CF911F9110
S11311600F91FF90EF90089582EE93E00E94970C08
S113117081E008950F931F93CF938C0168E670E08C
S113118082EE93E00E94AB0C60E082EE93E00E945A
S1131190580CF8012581CAE0822F6C2F0E94191A7D
S11311A0682F660F860F682F660F620F82EE93E03A
S11311B00E94580CF8012481822F6C2F0E94191A66
S11311C0682F660F860F682F660F620F82EE93E01A
S11311D00E94580CF8012381822F6C2F0E94191A47
S11311E0682F660F860F682F660F620F82EE93E0FA
S11311F00E94580C60E082EE93E00E94580CF801C3
S11312002281822F6C2F0E94191A682F660F860F75
S1131210682F660F620F82EE93E00E94580CF8016B
S11312202181822F6C2F0E94191A682F660F860F56
S1131230682F660F620F82EE93E00E94580CF8014B
S11312402081822F6C2F0E94191A682F660F860F37
S1131250682F660F620F82EE93E00E94580C82EEB4
S113126093E0CF911F910F910C94270DCF93DF93AF
S113127068E670E082EE93E00E94AB0C60E082EEE0
S113128093E00E94580C82EE93E00E94270D41E007
S113129050E068E670E082EE93E00E94240D82EE56
S11312A093E00E94040C87FB882780F9C82F20E074
S11312B0D22FCE0121E08227DF91CF910895CF92E2
S11312C0DF92EF92FF920F931F93CF93DF93EC0182
S11312D068E670E082EE93E00E94AB0C60E082EE80
S11312E093E00E94580C82EE93E00E94270D47E0A1
S11312F050E068E670E082EE93E00E94240D82EEF6
S113130093E00E94040C8F77982F92959F701AEFA8
S1131310082F919F000D112482EE93E00E94040C8B
S11313209C01332794E0359527959A95E1F7F82E9B
S1131330129FF00C112482EE93E00E94040C9C0195
S1131340332744E0359527954A95E1F7E82E129F17
S1131350E00C112482EE93E00E94040C82EE93E0F0
S11313600E94040C9C01332754E0359527955A9527
S1131370E1F7D82E129FD00C112482EE93E00E9444
S1131380040C9C01332764E0359527956A95E1F7B1
S1131390C82E129FC00C112482EE93E00E94040C0C
S11313A09C01332774E0359527957A95E1F7129FD0
S11313B0800D11248883C982DA82EB82FC820D833A
S11313C0CE01DF91CF911F910F91FF90EF90DF90AD
S11313D0CF9008951092E10381E08093DF0310928F
S11313E0DE0361E082E00E94261961E083E00E944E
S11313F02619E9EBF0E080818E7F808380818D7FE8
S1131400808388E48093B80085E48093BC000895C9
S1131410413208F043C09091E1039111FCCF91E077
S11314209093E1032093DF032FEF20937403109232
S1131430B903240F2093B8039093E0039091E00341
S1131440880F892B8093E0038091DE03813061F45F
S11314501092DE038091E0038093BB008091BC0076
S113146083FDF8CF85EC01C085EE8093BC008091AC
S1131470E1038130E1F38091B903841710F44091C2
S1131480B9032AEB33E0FB01D9018A2F821B8417AD
S113149018F48D918193F9CF842F089580E00895F5
S11314A00F93413208F04AC09091E1039111FCCFAF
S11314B032E03093E1030093DF033FEF3093740392
S11314C01092B9034093B803FB016AEB73E0DB01AC
S11314D03A2F361B341718F431913D93F9CF1092FB
S11314E0E0033091E003880F832B8093E003809125
S11314F0DE03813061F41092DE038091E003809377
S1131500BB008091BC0083FDF8CF85EC01C085EE63
S11315108093BC00222321F08091E1038230D1F337
S1131520809174038F3F79F080917403803241F08D
S113153080917403803331F094E005C091E003C0DE
S113154092E001C093E0892F0F910895613298F4DD
S11315502091E103243089F460939603FC0128E987
S113156033E0D9018A2F821B861718F481918D9359
S1131570F9CF80E0089581E0089582E0089585ED33
S11315808093BC008091BC0084FDFCCF1092E103E9
S1131590089585EC8093BC001092E10308951F9296
S11315A00F920FB60F9211242F933F934F935F9393
S11315B06F937F938F939F93AF93BF93EF93FF9317
S11315C08091B900887F803609F49EC078F588320E
S11315D009F45DC090F4803109F456C038F48823CE
S11315E009F4F5C0883009F44FC0F5C0883109F416
S11315F04EC0803209F45FC0EEC0803409F46AC082
S113160058F4803309F457C0883309F0E4C0809358
S113161074030E94C90ADFC0803509F44FC08835BD
S113162009F45DC0883409F0D6C0D3C0883909F400
S1131630C4C0A8F4883709F467C038F4883609F4BC
S113164063C0803709F460C0C6C0883809F4B5C0E7
S1131650803909F45FC0803809F0BDC05BC0803BAD
S113166009F483C038F4803A09F466C0883A09F46E
S11316707CC0B1C0803C09F4A4C0883C09F4A1C07A
S1131680883B09F487C0A7C08091E00310C0909103
S1131690B9038091B803981770F5E091B90381E01C
S11316A08E0F8093B903F0E0E654FC4F8081809361
S11316B0BB0085EC83C0809374038BC0E091B903B5
S11316C081E08E0F8093B9038091BB00F0E0E65473
S11316D0FC4F80839091B9038091B8036BC0E09173
S11316E0B90381E08E0F8093B9038091BB00F0E0D1
S11316F0E654FC4F80838091DF0381116AC081E04E
S11317008093DE0384EA5EC083E08093E103109259
S11317107503CFCF80917503803208F04EC0E091FD
S1131720750381E08E0F809375038091BB00F0E018
S1131730EA58FC4F8083BDCF0E94C90A809175038B
S1131740803230F4E0917503F0E0EA58FC4F1082E7
S11317506091750370E0E091DA03F091DB0386E7B2
S113176093E009951092750336C084E08093E103F9
S11317701092970310929603E091DC03F091DD033D
S1131780099580919603811105C081E080939603A9
S113179010929803E091970381E08E0F8093970352
S11317A0F0E0E856FC4F80818093BB009091970352
S11317B080919603981708F47CCF85E88093BC0049
S11317C00AC085EC8093BC001092E10304C010921F
S11317D074030E94BF0AFF91EF91BF91AF919F9153
S11317E08F917F916F915F914F913F912F910F90C6
S11317F00FBE0F901F9018958091120490E02091D5
S11318001304821B9109089590911304809112048A
S1131810981750F4E92FF0E0EC5EFB4F208130E0A4
S11318209F5F9093130402C02FEF3FEFC901089507
S1131830E091130480911204E81730F4F0E0EC5EB8
S1131840FB4F808190E008958FEF9FEF08950895F6
S1131850CF92DF92EF92FF920F931F93CF93DF9378
S11318607C01262F972F8A018091EE03882391F023
S1131870C62FD72F6E01C40ED51ECC15DD0571F011
S11318806991D701ED91FC910190F081E02DC701A0
S11318900995F3CF642F822F0E94A60AC801DF9115
S11318A0CF911F910F91FF90EF90DF90CF9008950B
S11318B0CF93DF931F92CDB7DEB769832091EE03F8
S11318C02223D1F02091EF03203240F021E030E0D8
S11318D0FC013383228380E090E015C08091F00303
S11318E0E82FF0E0EF50FC4F998190838F5F809355
S11318F0F0038093EF0305C061E0CE0101960E94DE
S1131900A60A81E090E00F90DF91CF910895FC0149
S11319101382128288EE93E0A0E0B0E08483958382
S1131920A683B7838EEB91E0918380830895109210
S11319301304109212041092F0031092EF030C940B
S1131940EA0981E08093EE03609311041092F0039E
S11319501092EF0308950C94A10C0F93062F21E02D
S11319604091EF0361EF73E0809111040E94500AEB
S11319701092F0031092EF031092EE030F9108956A
S11319804F925F926F927F92AF92BF92CF92EF92FB
S1131990FF920F931F93CF93DF935C01F62ED42F06
S11319A028013901EE2021F10E94A10CCE2DC43072
S11319B008F0C3E0C150C0F0D501ED91FC91B8E04E
S11319C0CB9FC0011124A301920104C056954795F1
S11319D0379527958A95D2F7CA01B9010190F0810C
S11319E0E02DC5010995E6CF60E0C5010E94AD0C6C
S11319F04D2FD13208F040E22C2D64E174E08F2D9C
S1131A000E94080A1092130480931204DF91CF916C
S1131A101F910F91FF90EF90CF90BF90AF907F9068
S1131A206F905F904F900895CF92EF920F931F9312
S1131A30C22EE12C00E010E098010E94C00C1F911E
S1131A400F91EF90CF90089521E00C94140D61E074
S1131A500C94AD0C82EE93E00C94870C24E834E0F3
S1131A60FC01338322836AEC71E0C9010E94B41142
S1131A7062E370E080E090E00C941B1824E834E00A
S1131A80FC01338322836DEC71E0C9010C94B41121
S1131A9024E834E0FC013383228326E084E894E0E4
S1131AA00C946C1024E834E0FC013383228341E07D
S1131AB060E0C9010E94EF12CB010895DC01129687
S1131AC08D919C9113976115710579F0FB0101903B
S1131AD00020E9F73197AF01461B570BDC01ED916C
S1131AE0FC910280F381E02D099480E090E0089558
S1131AF09A01462F50E060E070E0FC0182819381FE
S1131B000C9478120F931F93CF93DF93EC018B0106
S1131B1084E894E09B838A8366ED71E00E94B411AB
S1131B20B8018A819B810E94B41162E370E080E075
S1131B3090E0DF91CF911F910F910C941B180F939C
S1131B401F93CF93DF93EC018B0184E894E09B8394
S1131B508A836AE372E00E94B4110115110541F011
S1131B600130110569F44AE050E061E070E004C01E
S1131B704AE050E060E070E08A819B810E9471122B
S1131B8062E370E080E090E0DF91CF911F910F91CC
S1131B900C941B180F931F93CF93DF93EC018B01CD
S1131BA084E894E09B838A8365E772E00E94B41121
S1131BB00130110551F00230110561F0012B91F44F
S1131BC04AE050E060E070E009C04AE050E061E0C3
S1131BD070E004C04AE050E062E070E08A819B81DA
S1131BE00E94711262E370E080E090E0DF91CF9197
S1131BF01F910F910C941B180F931F93CF93DF9396
S1131C00EC018B0184E894E09B838A836DE872E0A5
S1131C100E94B4110115110541F00230110569F457
S1131C204AE050E062E070E004C04AE050E060E066
S1131C3070E08A819B810E94711262E370E080E00F
S1131C4090E0DF91CF911F910F910C941B180F938B
S1131C501F93CF93DF93EC018B0184E894E09B8383
S1131C608A8365E972E00E94B4110130110599F08C
S1131C703CF4012BE9F44AE050E060E070E014C069
S1131C800230110569F00330110591F44AE050E087
S1131C9063E070E009C04AE050E061E070E004C035
S1131CA04AE050E062E070E08A819B810E947112F8
S1131CB062E370E080E090E0DF91CF911F910F919B
S1131CC00C941B180F931F93CF93DF93EC018B019C
S1131CD084E894E09B838A8365E073E00E94B411F6
S1131CE00115110541F00130110569F44AE050E095
S1131CF061E070E004C04AE050E060E070E08A8196
S1131D009B810E94711262E370E080E090E0DF91B9
S1131D10CF911F910F910C941B1824E834E0FC011F
S1131D2033832283C9010E94A60F21E0892B09F481
S1131D3020E0822F089524E834E0FC0133832283D9
S1131D40C9010C94C00F24E834E0FC0133832283DE
S1131D50C9010C942510CF93DF931F92CDB7DEB742
S1131D606983DC01ED91FC910280F381E02D41E077
S1131D7050E0BE016F5F7F4F09950F90DF91CF91C7
S1131D800895CF93DF93EC018C859D8597FF05C063
S1131D9082E00E9476149D878C878C859D85DF91D7
S1131DA0CF91089583E00C940017FC0184859585F8
S1131DB097FD06C082E00E94201490E001960895E9
S1131DC082E00E94201490E00895FC0184859585AA
S1131DD097FD05C02FEF3FEF35872487089582E0F4
S1131DE00C947614CF93DF93EC0180910B0188233C
S1131DF031F083E00E94A7141816190634F081E02C
S1131E0090E09B838A8380E090E0DF91CF910895F6
S1131E10FC0190819E5F908342E450E061EB71E0AD
S1131E2080E80C943F15FC0181819081913A59F42A
S1131E30813209F058C047E050E064E071E080E08E
S1131E400E943F1566C0913209F04DC0833291F46F
S1131E509381892F90E0982F88272281822BA0E0FC
S1131E60B0E08093000190930101A0930201B0932C
S1131E7003014FC0803239F467E070E084E091E000
S1131E800E94661506C0823209F043C082818093A5
S1131E900B018091040190910501A0910601B0917C
S1131EA00701803B9440A105B105F9F480910B0131
S1131EB080FD1BC080910008909101089093FF0A57
S1131EC08093FE0A87E797E79093010880930008C0
S1131ED09BE088E10FB6F894A895809360000FBE4C
S1131EE09093600016C080E008950FB6F894A8950A
S1131EF080916000886180936000109260000FBE42
S1131F00A8958091FE0A9091FF0A9093010880930E
S1131F10000881E008952FEF3FEFFC013587248707
S1131F200895E4E3F4E01382128288EE93E0A0E0E3
S1131F30B0E084839583A683B78387E193E091839C
S1131F4080838FEF9FEF958784870895FC01918D9F
S1131F50228D892F90E0805C9F4F821B91098F73A3
S1131F6099270895FC01918D828D981731F0828D07
S1131F70E80FF11D858D90E008958FEF9FEF089590
S1131F80FC01918D828D981761F0828DDF01A80F7D
S1131F90B11D5D968C91928D9F5F9F73928F90E09F
S1131FA008958FEF9FEF089589E291E1892B49F01D
S1131FB080E090E0892B29F00E94291181110C9472
S1131FC000000895FC01848DDF01A80FB11DA35A00
S1131FD0BF4F2C91848D90E001968F739927848F45
S1131FE0A689B7892C93A089B1898C9180648C933C
S1131FF0938D848D981306C00288F389E02D808127
S11320008F7D80830895CF93DF93EC01888D88239F
S1132010C9F0EA89FB89808185FD05C0A889B98951
S11320208C9186FD0FC00FB607FCF5CF808185FF2C
S1132030F2CFA889B9898C9185FFEDCFCE010E949A
S1132040E20FE7CFDF91CF910895EF92FF920F93C4
S11320501F93CF93DF93EC0181E0888F9B8D8C8D50
S1132060981305C0E889F989808185FD24C0F62E7E
S11320700B8D10E00F5F1F4F0F731127E02E8C8D17
S1132080E8120CC00FB607FCFACFE889F989808101
S113209085FFF5CFCE010E94E20FF1CF8B8DFE01BB
S11320A0E80FF11DE35AFF4FF0820B8FEA89FB8999
S11320B08081806207C0EE89FF896083E889F9899D
S11320C080818064808381E090E0DF91CF911F91D3
S11320D00F91FF90EF900895CF92DF92EF92FF92CD
S11320E01F93CF93DF93EC016A017B01122FE889E0
S11320F0F98982E080834115514E61057105B1F083
S113210060E079E08DE390E0A70196010E94251A32
S1132110DA01C9010197A109B109B695A795979567
S11321208795AC01411580E15807A8F0E889F98941
S1132130108260E874E88EE190E0A70196010E94A5
S1132140251ABA01A901415051096109710976950D
S1132150679557954795EC85FD855083EE85FF85FA
S11321604083188EEC89FD891083EA89FB8980817C
S113217080618083EA89FB89808188608083EA8921
S1132180FB89808180688083EA89FB8980818F7DD7
S11321908083DF91CF911F91FF90EF90DF90CF90DC
S11321A008951F920F920FB60F9211242F938F93BD
S11321B09F93EF93FF93E0919404F09195048081B1
S11321C0E0919A04F0919B0482FD12C09081809169
S11321D09D048F5F8F7320919E04821751F0E091CC
S11321E09D04F0E0EC57FB4F958F80939D0401C054
S11321F08081FF91EF919F918F912F910F900FBE4E
S11322000F901F9018951F920F920FB60F921124E2
S11322102F933F934F935F936F937F938F939F93EA
S1132220AF93BF93EF93FF9384E894E00E94E20F8F
S1132230FF91EF91BF91AF919F918F917F916F919A
S11322405F914F913F912F910F900FBE0F901F9070
S1132250189584E894E00E94A60F21E0892B09F4E4
S113226020E0822F0895E4E8F4E01382128288EEDD
S113227093E0A0E0B0E084839583A683B78387E2EC
S113228093E0918380838DEC90E0958784878CEC38
S113229090E09787868788EC90E0918B808B89EC1F
S11322A090E0938B828B8AEC90E0958B848B8EEC00
S11322B090E0978B868B118E128E138E148E089558
S11322C008950E9457180E94601181E295E00E94CF
S11322D08D170E948F05C4EDDFE00E94150620973C
S11322E0E1F30E94D40FF9CFCF92DF92EF92FF92E5
S11322F00F931F93CF93DF936C017A018B01C0E09E
S1132300D0E0CE15DF0589F0D8016D918D01D6019D
S1132310ED91FC910190F081E02DC6010995892B86
S113232011F47E0102C02196ECCFC701DF91CF9159
S11323301F910F91FF90EF90DF90CF90089561155A
S1132340710579F0FB0101900020E9F73197AF01A5
S1132350461B570BDC01ED91FC910280F381E02DCB
S1132360099480E090E008950C949F11DC01ED91B4
S1132370FC910190F081E02D099463E373E00C94E7
S11323809F110F931F93CF93DF93EC010E949F1132
S11323908C01CE010E94BD11800F911FDF91CF915E
S11323A01F910F9108958F929F92AF92BF92CF92F7
S11323B0DF92EF92FF920F931F93CF93DF93CDB7EA
S11323C0DEB7A1970FB6F894DEBF0FBECDBF7C0178
S11323D0D42EC52EDB0119A2223008F42AE08E0186
S11323E00F5D1F4F822E912CA12CB12C6D2D7C2DB5
S11323F0CD01A50194010E94251AD22EC32EDA0123
S1132400015011096A3071058105910510F4605D70
S113241001C0695CF8016083232B242B252B31F741
S1132420B801C7010E949F11A1960FB6F894DEBFB0
S11324300FBECDBFDF91CF911F910F91FF90EF9011
S1132440DF90CF90BF90AF909F908F900895CF92E0
S1132450DF92EF92FF920F931F93CF93DF93EC01E0
S11324606A017B012115310579F4E881F981019034
S1132470F081E02D642FDF91CF911F910F91FF9098
S1132480EF90DF90CF9009942A303105E9F477FF7B
S11324901AC06DE20E94B6118C0144275527BA0177
S11324A04C195D096E097F092AE0CE010E94D311FF
S11324B0800F911FDF91CF911F910F91FF90EF90AB
S11324C0DF90CF9008952AE0B701A601CE01DF91F5
S11324D0CF911F910F91FF90EF90DF90CF900C94CC
S11324E0D3119A01AB01770F660B770B0C9427126B
S11324F02115310541F4DC01ED91FC910190F0814D
S1132500E02D642F09940C94D3110F931F93CF9350
S1132510DF93EC010E94EA17688779878A879B8793
S1132520E881F9810084F185E02DCE01099597FFBA
S113253017C00E94EA17088519852A853B85DC01A6
S1132540CB01801B910BA20BB30B0C811D812E813F
S11325503F8180179107A207B30710F38FEF9FEF16
S1132560DF91CF911F910F9108950F931F93CF93F4
S1132570DF93EC01162F042FCE010E9485129C01DB
S113258097FD0BC08D32910541F0C0970A9728F052
S1132590002329F02E32310511F4C9011BC011307A
S11325A0B9F0123069F42D30310551F034F429506A
S11325B031092230310520F00BC02032310541F4BD
S11325C0E881F9810680F781E02DCE010995D4CF09
S11325D08FEF9FEFDF91CF911F910F9108958F920D
S11325E09F92AF92BF92CF92DF92FF920F931F936D
S11325F0CF93DF9300D000D0CDB7DEB78C01B42EDB
S113260040E00E94B512FC0197FD4BC020E030E091
S1132610A901F12CCB2CD12CEC15FD05F1F0ED32F8
S1132620F105C9F0CF01C0970A97B8F4AAE0B0E069
S11326300E945C1A4F01FF0FAA08BB08DC01CB0102
S1132640880D991DAA1DBB1D9C01AD0120533109A4
S11326504109510902C0FF24F394D801ED91FC9182
S11326600680F781E02DC80129833A834B835C837C
S11326700995C8010E948512FC01C09729813A81FD
S11326804B815C810A9740F2EC15FD0529F2FF208D
S113269061F066277727CB01621B730B840B950BC4
S11326A006C060E070E0CB0102C0CA01B9010F901E
S11326B00F900F900F90DF91CF911F910F91FF908A
S11326C0DF90CF90BF90AF909F908F90089561500E
S11326D030F02091F100FC0120830196F8CF289876
S11326E084E680932A050895409125055091260596
S11326F0209123053091240542175307B4F4909197
S1132700E8009570E1F39091E80092FD19C0809380
S1132710F100809125059091260501968F739927E4
S1132720892B19F48EEF8093E80080912505909110
S113273026050196909326058093250581E008954A
S113274080E00895CF92DF92EF92FF920F931F9350
S1132750CF93DF931F92CDB7DEB7182F062FE42E49
S1132760862F880F8E5F99830E94741383E00E94E2
S11327707413F12EC12E9981D92E8C2D8F198017A7
S113278098F4F601E7FE02C0849101C080810E94A2
S11327907413182F80E00E9474138123FFEFCF1A63
S11327A0DF0A8111EACF01C081E00F90DF91CF9160
S11327B01F910F91FF90EF90DF90CF90089580913B
S11327C0D70081608093D70080EA8093D80089B5D0
S11327D0806189BD89B5826089BD09B400FEFDCFE1
S11327E061E070E080E090E00E941B188091D800C6
S11327F08F7C80618093D8008091E000807F8093FB
S1132800E0000895CF93DF931F92CDB7DEB719820E
S1132810CE0101960E94080F0E94051ABE016F5F47
S11328207F4F0E94801989810F90DF91CF91089585
S11328302FB7FC012083F89467706093E900089532
S1132840CF93DF931F92CDB7DEB7682FCE010196E9
S11328500E9418148091F20099819FBF0F90DF911C
S1132860CF910895EF92FF920F931F93CF93DF932D
S11328701F92CDB7DEB790912905992311F057FF28
S113288003C08FEF9FEF2AC08A017B01682FCE011E
S113289001960E9418148091F20090E0A80180171C
S11328A091070CF4AC01842FF70194E6815038F0C1
S11328B0289890932A052091F1002193F7CF411590
S11328C0510521F08091F200882321F089818FBF86
S11328D0CA0104C08BE68093E800F8CF0F90DF9123
S11328E0CF911F910F91FF90EF900895CF93DF93B5
S11328F01F92CDB7DEB741E050E0BE016F5F7F4F5E
S11329000E943214019719F4898190E002C08FEF7C
S11329109FEF0F90DF91CF910895CF93DF931F9294
S1132920CDB7DEB7682FCE0101960E94181490919E
S1132930E800892F807295FF04C09091F20080E432
S1132940891B99819FBF0F90DF91CF9108956F925A
S11329507F928F929F92AF92BF92CF92DF92EF922B
S1132960FF920F931F93CF93DF931F92CDB7DEB7E0
S1132970A82E6B01B42E052F80912905882369F0B8
S1132980E42EF52E8AEF982E8A2D8072782E9AE303
S1132990892E8A2D8074682E12C08FEF9FEF54C049
S11329A08A2D0E948D14182F81110DC09A9499209C
S11329B0A1F361E070E080E090E00E941B18E11454
S11329C0F10471F737C090E0E816F9060CF41E2DF7
S11329D06A2DCE0101960E9418148091E80085FFAB
S11329E026C0812F90E0E81AF90A772029F01150C7
S11329F0A8F01092F100FBCFF601A7FE07C011501A
S1132A0058F024912093F1003196F9CF115020F021
S1132A1021912093F100FACFC80ED91E8091E800CD
S1132A2085FF0FC0E114F10411F461100AC089811B
S1132A308FBFC5CF5D9884E680932B058B2D902F97
S1132A4003C08092E800F3CF0F90DF91CF911F91E4
S1132A500F91FF90EF90DF90CF90BF90AF909F9039
S1132A608F907F906F9008951092E9001092260540
S1132A701092250590932405809323050895DF92F1
S1132A80EF92FF920F931F93CF93DF93D82E8A0177
S1132A907B01E40EF51EEB01CE15DF0571F0D7FEC8
S1132AA003C0FE01849101C088810E9474132196A1
S1132AB08111F2CF8FEF9FEF01C0C801DF91CF9159
S1132AC01F910F91FF90EF90DF900895BF92CF92E6
S1132AD0DF92EF92FF920F931F93CF93DF936C01DA
S1132AE08B01EB019BEFB92E2097C1F07E01C1341D
S1132AF0D1051CF080E4E82EF12C8091E80082FFDF
S1132B00FCCFC8018C1B9D0B6E2D8C0D9D1D0E944E
S1132B106713B092E800CE19DF09E6CFC801DF9150
S1132B20CF911F910F91FF90EF90DF90CF90BF90C6
S1132B3008951F920F920FB60F921124CF92DF9235
S1132B40EF92FF920F931F932F933F934F935F93B3
S1132B506F937F938F939F93AF93BF93EF93FF9361
S1132B60CF93DF93CDB7DEB76C97DEBFCDBF1092A6
S1132B70E9008091E80083FF24C168E0CE01459616
S1132B800E94671382EF8093E8008D8987FF05C058
S1132B909091E80090FFFCCF03C09EEF9093E80073
S1132BA0982F907609F0F1C09E892F89188D911184
S1132BB00CC0803829F4809128058093F10002C06C
S1132BC01092F1001092F100F5C0422F50E0512B09
S1132BD0913051F48111EEC04130510509F0EAC041
S1132BE0809128058D7F0BC0933061F48111E2C080
S1132BF04130510509F0DEC0809128058260809340
S1132C002805D8C0953041F48091E80080FFFCCFBE
S1132C1020682093E300CEC0963009F08CC0EB8C82
S1132C20FC8C123069F580E090E00E9434150E941B
S1132C30021499E09E012F5F3F4F6901F901292F8A
S1132C4011922A95E9F799831A8391E09E8390EA79
S1132C5098879AEF99872091250530912605275F5B
S1132C603F4F3C832B838D83C7010E94341549E079
S1132C7050E0B60180E00E943F150E9402149AC001
S1132C80C7010E9434150E94051ABE016B5E7F4F76
S1132C900E94A919009719F00CF08CC08FC0113054
S1132CA071F48B8D9C8D089719F481E08093220533
S1132CB08091220581112FC065E072E031C013308C
S1132CC009F07CC08F89882349F1823029F440E8D7
S1132CD060E183E292E006C0813039F440E86BE0C1
S1132CE087E192E00E94A21363C0833009F066C0BA
S1132CF00E94051A8E010F5F1F4FB8010E94C81968
S1132D00F80101900020E9F73197BF01601B710BB6
S1132D1040E0C801E7CF63EF71E002C064E372E012
S1132D206115710509F44AC0FB01449150E080E843
S1132D300E943F153FC0973009F440C0983021F4F9
S1132D4081E08093F10036C09930A1F58370B1F52C
S1132D50EDE0F1E081E021E036E39081992361F038
S1132D608093E9002093EB0091919093EC003093D1
S1132D70ED008F5F873089F78EE78093EA00109229
S1132D80EA008F898093290515C08B8D9C8D0E9444
S1132D903415898D811105C0CE0145960E94130F0B
S1132DA007C00E94051ABE016B5E7F4F0E94E7199F
S1132DB0882321F08EEF8093E80003C081E28093A2
S1132DC0EB006C960FB6F894DEBF0FBECDBFDF915B
S1132DD0CF91FF91EF91BF91AF919F918F917F918F
S1132DE06F915F914F913F912F911F910F91FF90A0
S1132DF0EF90DF90CF900F900FBE0F901F9018951B
S1132E008093E9008091F200882319F08AE380938B
S1132E10E80008951F920F920FB60F9211242F937A
S1132E203F934F935F936F937F938F939F93AF934E
S1132E30BF93CF93EF93FF93C091E1008091E100A2
S1132E40837F8093E1008093E100C3FF0FC0109261
S1132E50E90081E08093EB001092EC0082E3809320
S1132E60ED001092290588E08093F000C2FF19C09C
S1132E7083E00E94001780912B05882339F080910C
S1132E802B05815080932B05882389F180912A0595
S1132E90882339F080912A05815080932A0588235C
S1132EA041F1C4FF10C08091E2008E7E8160809366
S1132EB0E2008091E1008F7E8093E10080912705FC
S1132EC08E7E806111C0C0FF16C08091E2008E7EAC
S1132ED080618093E2008091E1008E7E8093E10026
S1132EE0809127058E7E81608093270504C05D9ABA
S1132EF0CDCF289AD6CFFF91EF91CF91BF91AF91CB
S1132F009F918F917F916F915F914F913F912F91FD
S1132F100F900FBE0F901F901895109229051092D4
S1132F202805109227050E94DF13E1EEF0E080816E
S1132F308E7E80838DE08093E200559A209A0895D6
S1132F401F920F920FB60F9211242F933F938F93DA
S1132F509F93AF93BF9380912D0590912E05A091DF
S1132F602F05B091300530912C0523E0230F2D3728
S1132F7020F40196A11DB11D05C026E8230F029679
S1132F80A11DB11D20932C0580932D0590932E0532
S1132F90A0932F05B09330058091310590913205AF
S1132FA0A0913305B09134050196A11DB11D809304
S1132FB0310590933205A0933305B0933405BF9146
S1132FC0AF919F918F913F912F910F900FBE0F90D2
S1132FD01F9018952FB7F89460912D0570912E05C8
S1132FE080912F05909130052FBF08953FB7F89435
S1132FF08091310590913205A0913305B09134054B
S113300026B5A89B05C02F3F19F00196A11DB11D3F
S11330103FBFBA2FA92F982F8827820F911DA11D7A
S1133020B11DBC01CD0142E0660F771F881F991FB7
S11330304A95D1F708958F929F92AF92BF92CF9203
S1133040DF92EF92FF926B017C010E94F6174B0115
S11330505C01C114D104E104F10401F10E947F195F
S11330600E94F617DC01CB0188199909AA09BB094A
S1133070883E9340A105B10560F321E0C21AD1084E
S1133080E108F10888EE880E83E0981EA11CB11CAB
S1133090C114D104E104F10419F7DBCFFF90EF90E0
S11330A0DF90CF90BF90AF909F908F9008957894C9
S11330B084B5826084BD84B5816084BD85B5826039
S11330C085BD85B5816085BDEEE6F0E080818160D7
S11330D08083E1E8F0E010828081826080838081D7
S11330E081608083E0E8F0E0808181608083E1E9B1
S11330F0F0E0808182608083808181608083E0E968
S1133100F0E0808181608083E1ECF0E08081846084
S11331108083808182608083808181608083E3EC0E
S1133120F0E0808181608083E0ECF0E08081826067
S11331308083E2ECF0E0808181608083EAE7F0E064
S113314080818460808380818260808380818160CB
S11331508083808180688083089590E0FC013197AA
S1133160EF30F105B0F5E754FF4F0C94471A809106
S113317080008F7703C0809180008F7D80938000D2
S1133180089580918000877FF9CF84B58F7702C03E
S113319084B58F7D84BD0895809190008F7707C09A
S11331A0809190008F7D03C080919000877F8093F1
S11331B0900008958091C0008F7703C08091C00073
S11331C08F7D8093C00008958091C200877F809393
S11331D0C2000895CF93DF9390E0FC01E95AFD4FBC
S11331E02491FC01EA58FD4F8491882361F190E019
S11331F0880F991FFC01EF54FD4FC591D491FC0138
S1133200ED55FD4FA591B491611109C09FB7F89494
S11332108881209582238883EC912E230BC0623011
S113322061F49FB7F8943881822F80958323888333
S1133230EC912E2B2C939FBF06C08FB7F894E88196
S11332402E2B28838FBFDF91CF9108951F93CF93A7
S1133250DF93282F30E0F901E85CFD4F8491F901F8
S1133260E95AFD4FD491F901EA58FD4FC491CC239A
S1133270C9F0162F81110E94AD18EC2FF0E0EE0F6B
S1133280FF1FED55FD4FA591B4918FB7F89411111F
S113329005C09C91ED2FE095E92302C0EC91ED2B44
S11332A0EC938FBFDF91CF911F910895CF93DF935C
S11332B0282F30E0F901E85CFD4F8491F901E95AC7
S11332C0FD4FD491F901EA58FD4FC491CC2391F0FC
S11332D081110E94AD18EC2FF0E0EE0FFF1FEB56AA
S11332E0FD4FA591B491EC91ED2381E090E021F4A0
S11332F080E002C080E090E0DF91CF9108950895CE
S1133300EF92FF920F931F93CF93DF937B01FC0106
S1133310C281D38100E010E0209781F0E881F98137
S11333200280F381E02DB701CE01099597FD08C015
S1133330080F191F0884D985C02DEECFC80102C01B
S11333408FEF9FEFDF91CF911F910F91FF90EF903F
S113335008950F931F93CF93DF938B01FC01C281D8
S1133360D381209771F0E881F9810480F581E02D03
S1133370B801CE010995009731F40884D985C02D90
S1133380F0CF80E090E0DF91CF911F910F910895ED
S11333900F931F93CF93DF938B01FC01C281D381E1
S11333A0209771F0E881F9810680F781E02DB8015A
S11333B0CE010995080F111D0884D985C02DF0CFC1
S11333C0F8011082DF91CF911F910F9108950F930F
S11333D01F93CF93DF938B01FC01C281D38120978C
S11333E071F0E881F9810190F081E02DB801CE01FE
S11333F00995811105C00884D985C02DF0CF80E0DE
S1133400DF91CF911F910F9108958091390581111A
S11334100DC082E08093350584E0809336051092D8
S113342038051092370581E08093390585E395E0EE
S11334300895991B79E004C0991F961708F0961B0C
S1133440881F7A95C9F780950895A1E21A2EAA1BC0
S1133450BB1BFD010DC0AA1FBB1FEE1FFF1FA21740
S1133460B307E407F50720F0A21BB30BE40BF50B3D
S1133470661F771F881F991F1A9469F760957095C6
S1133480809590959B01AC01BD01CF010895EE0F8D
S1133490FF1F0590F491E02D0994A29FB001B39F02
S11334A0C001A39F700D811D1124911DB29F700D49
S11334B0811D1124911D08950E944D1AA59F900D00
S11334C0B49F900DA49F800D911D11240895FB01BC
S11334D0DC0102C005900D9241505040D8F7089588
S11334E0F999FECF92BD81BDF89A992780B50895C8
S11334F0262FF999FECF1FBA92BD81BD20BD0FB60C
S1133500F894FA9AF99A0FBE01960895F894FFCFA9
S1133510FFFFFFFF00E100000000000000C1808108
S11335200000000E0F1011050D12134C6576656C2A
S1133530202D2031004C6576656C202D2032004C06
S11335406576656C202D2033004C6576656C202DE6
S113355020340042656420526F6F6D00436F756CB8
S1133560646E27742066696E64205254430052547A
S113357043206973204E4F542072756E6E696E67D6
S11335802100496E20436173652030004C657665E7
S11335906C2031004C6576656C2032004C65766594
S11335A06C2033004C6576656C203400763A004C10
S11335B04F3A0042333A004F75743A00496E205A2C
S11335C065726F00496E20323A0000000000580C0A
S11335D0280CFC0B040C180C270C41540041542BF0
S11335E052455345540041542B4E414D45004154DE
S11335F02B41445649003500360037003800390065
S113360041542B424154430041542B434C454152B5
S11336100041542B434F4E4E4C0041542B434F4ECC
S11336200041542B444953433F0041542B434F4ED4
S11336304E0041542B44454C4F0041542B46494CB9
S1133640540041542B494D4D450041542B494245AA
S1133650410041542B494245300041542B494245D5
S1133660310041542B494245320041542B494245D3
S1133670330041542B4D41524A0030780041542BC1
S11336804D494E4F0041542B4D4F44450041542B5E
S11336904E4F54490041542B504153530041542B35
S11336A0545950450041542B504F57450041542B19
S11336B05057524D0057616B6546726F6D536C6580
S11336C0657057616B6546726F6D536C65657057B5
S11336D0616B6546726F6D536C65657057616B65A0
S11336E046726F6D536C6565700041542B4E414DAD
S11336F0454842540041542B5041535330303030EC
S113370030300041542B524F4C45300041542B4231
S1133710415544300041542B524F4C4500000000A9
S113372000A30E00000000AB0EF20ED50EE50EC194
S11337300ED20E0000000025107411A60FC00FB2A7
S11337400F03100D0A006E616E00696E66006F76DD
S107375066002E00DD
S9030000FC
